{
  "_format": "hh-sol-artifact-1",
  "contractName": "NigerianStockTokenFactory",
  "sourceName": "contracts/NigerianStockTokenFactory.sol",
  "abi": [
    {
      "inputs": [
        {
          "internalType": "address",
          "name": "_admin",
          "type": "address"
        }
      ],
      "stateMutability": "nonpayable",
      "type": "constructor"
    },
    {
      "inputs": [],
      "name": "AccessControlBadConfirmation",
      "type": "error"
    },
    {
      "inputs": [
        {
          "internalType": "address",
          "name": "account",
          "type": "address"
        },
        {
          "internalType": "bytes32",
          "name": "neededRole",
          "type": "bytes32"
        }
      ],
      "name": "AccessControlUnauthorizedAccount",
      "type": "error"
    },
    {
      "inputs": [],
      "name": "EnforcedPause",
      "type": "error"
    },
    {
      "inputs": [],
      "name": "ExpectedPause",
      "type": "error"
    },
    {
      "inputs": [],
      "name": "InvalidArrayLength",
      "type": "error"
    },
    {
      "inputs": [
        {
          "internalType": "address",
          "name": "tokenAddress",
          "type": "address"
        }
      ],
      "name": "InvalidTokenAddress",
      "type": "error"
    },
    {
      "inputs": [],
      "name": "ReentrancyGuardReentrantCall",
      "type": "error"
    },
    {
      "inputs": [
        {
          "internalType": "string",
          "name": "symbol",
          "type": "string"
        }
      ],
      "name": "TokenAlreadyExists",
      "type": "error"
    },
    {
      "inputs": [
        {
          "internalType": "string",
          "name": "symbol",
          "type": "string"
        }
      ],
      "name": "TokenNotFound",
      "type": "error"
    },
    {
      "inputs": [],
      "name": "ZeroAddress",
      "type": "error"
    },
    {
      "anonymous": false,
      "inputs": [
        {
          "indexed": false,
          "internalType": "uint256",
          "name": "totalTokens",
          "type": "uint256"
        }
      ],
      "name": "BatchDeploymentCompleted",
      "type": "event"
    },
    {
      "anonymous": false,
      "inputs": [
        {
          "indexed": false,
          "internalType": "address",
          "name": "account",
          "type": "address"
        }
      ],
      "name": "Paused",
      "type": "event"
    },
    {
      "anonymous": false,
      "inputs": [
        {
          "indexed": true,
          "internalType": "bytes32",
          "name": "role",
          "type": "bytes32"
        },
        {
          "indexed": true,
          "internalType": "bytes32",
          "name": "previousAdminRole",
          "type": "bytes32"
        },
        {
          "indexed": true,
          "internalType": "bytes32",
          "name": "newAdminRole",
          "type": "bytes32"
        }
      ],
      "name": "RoleAdminChanged",
      "type": "event"
    },
    {
      "anonymous": false,
      "inputs": [
        {
          "indexed": true,
          "internalType": "bytes32",
          "name": "role",
          "type": "bytes32"
        },
        {
          "indexed": true,
          "internalType": "address",
          "name": "account",
          "type": "address"
        },
        {
          "indexed": true,
          "internalType": "address",
          "name": "sender",
          "type": "address"
        }
      ],
      "name": "RoleGranted",
      "type": "event"
    },
    {
      "anonymous": false,
      "inputs": [
        {
          "indexed": true,
          "internalType": "bytes32",
          "name": "role",
          "type": "bytes32"
        },
        {
          "indexed": true,
          "internalType": "address",
          "name": "account",
          "type": "address"
        },
        {
          "indexed": true,
          "internalType": "address",
          "name": "sender",
          "type": "address"
        }
      ],
      "name": "RoleRevoked",
      "type": "event"
    },
    {
      "anonymous": false,
      "inputs": [
        {
          "indexed": true,
          "internalType": "string",
          "name": "symbol",
          "type": "string"
        },
        {
          "indexed": true,
          "internalType": "address",
          "name": "tokenAddress",
          "type": "address"
        },
        {
          "indexed": false,
          "internalType": "string",
          "name": "name",
          "type": "string"
        },
        {
          "indexed": false,
          "internalType": "uint256",
          "name": "initialSupply",
          "type": "uint256"
        },
        {
          "indexed": false,
          "internalType": "address",
          "name": "admin",
          "type": "address"
        }
      ],
      "name": "StockTokenDeployed",
      "type": "event"
    },
    {
      "anonymous": false,
      "inputs": [
        {
          "indexed": true,
          "internalType": "string",
          "name": "symbol",
          "type": "string"
        },
        {
          "indexed": true,
          "internalType": "address",
          "name": "tokenAddress",
          "type": "address"
        }
      ],
      "name": "StockTokenUpdated",
      "type": "event"
    },
    {
      "anonymous": false,
      "inputs": [
        {
          "indexed": false,
          "internalType": "address",
          "name": "account",
          "type": "address"
        }
      ],
      "name": "Unpaused",
      "type": "event"
    },
    {
      "inputs": [],
      "name": "ADMIN_ROLE",
      "outputs": [
        {
          "internalType": "bytes32",
          "name": "",
          "type": "bytes32"
        }
      ],
      "stateMutability": "view",
      "type": "function"
    },
    {
      "inputs": [],
      "name": "DEFAULT_ADMIN_ROLE",
      "outputs": [
        {
          "internalType": "bytes32",
          "name": "",
          "type": "bytes32"
        }
      ],
      "stateMutability": "view",
      "type": "function"
    },
    {
      "inputs": [],
      "name": "DEPLOYER_ROLE",
      "outputs": [
        {
          "internalType": "bytes32",
          "name": "",
          "type": "bytes32"
        }
      ],
      "stateMutability": "view",
      "type": "function"
    },
    {
      "inputs": [],
      "name": "PAUSER_ROLE",
      "outputs": [
        {
          "internalType": "bytes32",
          "name": "",
          "type": "bytes32"
        }
      ],
      "stateMutability": "view",
      "type": "function"
    },
    {
      "inputs": [
        {
          "components": [
            {
              "internalType": "string",
              "name": "name",
              "type": "string"
            },
            {
              "internalType": "string",
              "name": "symbol",
              "type": "string"
            },
            {
              "internalType": "string",
              "name": "stockSymbol",
              "type": "string"
            },
            {
              "internalType": "string",
              "name": "companyName",
              "type": "string"
            },
            {
              "internalType": "uint256",
              "name": "maxSupply",
              "type": "uint256"
            },
            {
              "internalType": "uint256",
              "name": "initialSupply",
              "type": "uint256"
            }
          ],
          "internalType": "struct NigerianStockTokenFactory.TokenDeploymentData[]",
          "name": "_tokenData",
          "type": "tuple[]"
        },
        {
          "internalType": "address",
          "name": "_tokenAdmin",
          "type": "address"
        }
      ],
      "name": "batchDeployStockTokens",
      "outputs": [],
      "stateMutability": "nonpayable",
      "type": "function"
    },
    {
      "inputs": [
        {
          "internalType": "string",
          "name": "_name",
          "type": "string"
        },
        {
          "internalType": "string",
          "name": "_symbol",
          "type": "string"
        },
        {
          "internalType": "string",
          "name": "_stockSymbol",
          "type": "string"
        },
        {
          "internalType": "string",
          "name": "_companyName",
          "type": "string"
        },
        {
          "internalType": "uint256",
          "name": "_maxSupply",
          "type": "uint256"
        },
        {
          "internalType": "uint256",
          "name": "_initialSupply",
          "type": "uint256"
        },
        {
          "internalType": "address",
          "name": "_tokenAdmin",
          "type": "address"
        }
      ],
      "name": "deployStockToken",
      "outputs": [
        {
          "internalType": "address",
          "name": "",
          "type": "address"
        }
      ],
      "stateMutability": "nonpayable",
      "type": "function"
    },
    {
      "inputs": [
        {
          "internalType": "uint256",
          "name": "",
          "type": "uint256"
        }
      ],
      "name": "deployedSymbols",
      "outputs": [
        {
          "internalType": "string",
          "name": "",
          "type": "string"
        }
      ],
      "stateMutability": "view",
      "type": "function"
    },
    {
      "inputs": [],
      "name": "getAllDeployedSymbols",
      "outputs": [
        {
          "internalType": "string[]",
          "name": "",
          "type": "string[]"
        }
      ],
      "stateMutability": "view",
      "type": "function"
    },
    {
      "inputs": [
        {
          "internalType": "uint256",
          "name": "_offset",
          "type": "uint256"
        },
        {
          "internalType": "uint256",
          "name": "_limit",
          "type": "uint256"
        }
      ],
      "name": "getDeployedTokensPaginated",
      "outputs": [
        {
          "internalType": "string[]",
          "name": "symbols",
          "type": "string[]"
        },
        {
          "internalType": "address[]",
          "name": "addresses",
          "type": "address[]"
        }
      ],
      "stateMutability": "view",
      "type": "function"
    },
    {
      "inputs": [],
      "name": "getFactoryStats",
      "outputs": [
        {
          "internalType": "uint256",
          "name": "_totalDeployedTokens",
          "type": "uint256"
        },
        {
          "internalType": "uint256",
          "name": "_totalSymbols",
          "type": "uint256"
        }
      ],
      "stateMutability": "view",
      "type": "function"
    },
    {
      "inputs": [
        {
          "internalType": "bytes32",
          "name": "role",
          "type": "bytes32"
        }
      ],
      "name": "getRoleAdmin",
      "outputs": [
        {
          "internalType": "bytes32",
          "name": "",
          "type": "bytes32"
        }
      ],
      "stateMutability": "view",
      "type": "function"
    },
    {
      "inputs": [
        {
          "internalType": "string",
          "name": "_symbol",
          "type": "string"
        }
      ],
      "name": "getTokenAddress",
      "outputs": [
        {
          "internalType": "address",
          "name": "",
          "type": "address"
        }
      ],
      "stateMutability": "view",
      "type": "function"
    },
    {
      "inputs": [],
      "name": "getTokenCount",
      "outputs": [
        {
          "internalType": "uint256",
          "name": "",
          "type": "uint256"
        }
      ],
      "stateMutability": "view",
      "type": "function"
    },
    {
      "inputs": [
        {
          "internalType": "string",
          "name": "_symbol",
          "type": "string"
        }
      ],
      "name": "getTokenInfo",
      "outputs": [
        {
          "components": [
            {
              "internalType": "string",
              "name": "name",
              "type": "string"
            },
            {
              "internalType": "string",
              "name": "symbol",
              "type": "string"
            },
            {
              "internalType": "string",
              "name": "stockSymbol",
              "type": "string"
            },
            {
              "internalType": "string",
              "name": "companyName",
              "type": "string"
            },
            {
              "internalType": "uint256",
              "name": "maxSupply",
              "type": "uint256"
            },
            {
              "internalType": "address",
              "name": "tokenAddress",
              "type": "address"
            }
          ],
          "internalType": "struct NigerianStockTokenFactory.TokenInfo",
          "name": "",
          "type": "tuple"
        }
      ],
      "stateMutability": "view",
      "type": "function"
    },
    {
      "inputs": [
        {
          "internalType": "bytes32",
          "name": "role",
          "type": "bytes32"
        },
        {
          "internalType": "address",
          "name": "account",
          "type": "address"
        }
      ],
      "name": "grantRole",
      "outputs": [],
      "stateMutability": "nonpayable",
      "type": "function"
    },
    {
      "inputs": [
        {
          "internalType": "bytes32",
          "name": "role",
          "type": "bytes32"
        },
        {
          "internalType": "address",
          "name": "account",
          "type": "address"
        }
      ],
      "name": "hasRole",
      "outputs": [
        {
          "internalType": "bool",
          "name": "",
          "type": "bool"
        }
      ],
      "stateMutability": "view",
      "type": "function"
    },
    {
      "inputs": [
        {
          "internalType": "address",
          "name": "",
          "type": "address"
        }
      ],
      "name": "isValidStockToken",
      "outputs": [
        {
          "internalType": "bool",
          "name": "",
          "type": "bool"
        }
      ],
      "stateMutability": "view",
      "type": "function"
    },
    {
      "inputs": [
        {
          "internalType": "address",
          "name": "_tokenAddress",
          "type": "address"
        }
      ],
      "name": "isValidToken",
      "outputs": [
        {
          "internalType": "bool",
          "name": "",
          "type": "bool"
        }
      ],
      "stateMutability": "view",
      "type": "function"
    },
    {
      "inputs": [],
      "name": "pause",
      "outputs": [],
      "stateMutability": "nonpayable",
      "type": "function"
    },
    {
      "inputs": [],
      "name": "paused",
      "outputs": [
        {
          "internalType": "bool",
          "name": "",
          "type": "bool"
        }
      ],
      "stateMutability": "view",
      "type": "function"
    },
    {
      "inputs": [
        {
          "internalType": "string",
          "name": "_symbol",
          "type": "string"
        }
      ],
      "name": "removeTokenFromRegistry",
      "outputs": [],
      "stateMutability": "nonpayable",
      "type": "function"
    },
    {
      "inputs": [
        {
          "internalType": "bytes32",
          "name": "role",
          "type": "bytes32"
        },
        {
          "internalType": "address",
          "name": "callerConfirmation",
          "type": "address"
        }
      ],
      "name": "renounceRole",
      "outputs": [],
      "stateMutability": "nonpayable",
      "type": "function"
    },
    {
      "inputs": [
        {
          "internalType": "bytes32",
          "name": "role",
          "type": "bytes32"
        },
        {
          "internalType": "address",
          "name": "account",
          "type": "address"
        }
      ],
      "name": "revokeRole",
      "outputs": [],
      "stateMutability": "nonpayable",
      "type": "function"
    },
    {
      "inputs": [
        {
          "internalType": "string",
          "name": "",
          "type": "string"
        }
      ],
      "name": "stockTokens",
      "outputs": [
        {
          "internalType": "address",
          "name": "",
          "type": "address"
        }
      ],
      "stateMutability": "view",
      "type": "function"
    },
    {
      "inputs": [
        {
          "internalType": "bytes4",
          "name": "interfaceId",
          "type": "bytes4"
        }
      ],
      "name": "supportsInterface",
      "outputs": [
        {
          "internalType": "bool",
          "name": "",
          "type": "bool"
        }
      ],
      "stateMutability": "view",
      "type": "function"
    },
    {
      "inputs": [],
      "name": "totalDeployedTokens",
      "outputs": [
        {
          "internalType": "uint256",
          "name": "",
          "type": "uint256"
        }
      ],
      "stateMutability": "view",
      "type": "function"
    },
    {
      "inputs": [],
      "name": "unpause",
      "outputs": [],
      "stateMutability": "nonpayable",
      "type": "function"
    }
  ],
  "bytecode": "0x608034620000b157601f6200506338819003918201601f19168301916001600160401b03831184841017620000b657808492602094604052833981010312620000b157516001600160a01b038116808203620000b15760018055156200009f57806200006f6200008e92620000cc565b506200007b816200014c565b506200008781620001ee565b506200028b565b50604051614d1a9081620003298239f35b60405163d92e233d60e01b8152600490fd5b600080fd5b634e487b7160e01b600052604160045260246000fd5b6001600160a01b031660008181527fad3228b676f7d3cd4284a5443f17f1962b36e491b30a40b2405849e597ba5fb5602052604081205490919060ff166200014857818052816020526040822081835260205260408220600160ff198254161790553391600080516020620050438339815191528180a4600190565b5090565b6001600160a01b031660008181527f7d7ffb7a348e1c6a02869081a26547b49160dd3df72d1d75a570eb9b698292ec60205260408120549091907fa49807205ce4d355092ef5a8a18f56e8913cf4a201fbe287825b095693c217759060ff16620001e957808352826020526040832082845260205260408320600160ff1982541617905560008051602062005043833981519152339380a4600190565b505090565b6001600160a01b031660008181527f740c5e3e456bed56f053f960110118ba9b95a1f5359a82283516fb2e81b6e37e60205260408120549091907ffc425f2263d0df187444b70e47283d622c70181c5baebb1306a01edba1ce184c9060ff16620001e957808352826020526040832082845260205260408320600160ff1982541617905560008051602062005043833981519152339380a4600190565b6001600160a01b031660008181527ff7c9542c591017a21c74b6f3fab6263c7952fc0aaf9db4c22a2a04ddc7f8674f60205260408120549091907f65d7a28e3265b37a6474929f336521b332c1681b933f6cb9f3376673440d862a9060ff16620001e957808352826020526040832082845260205260408320600160ff1982541617905560008051602062005043833981519152339380a460019056fe60806040818152600491823610156200001757600080fd5b600092833560e01c91826301ffc9a714620010ec5750816306a5c23a14620010815781630c2c0a531462000eb857816316656c7714620003a9578163248a9ca31462000e8c5781632f2ff15d1462000e5b57816336568abe1462000e0e5781633f4ba83a1462000d9f5781635c975abb1462000d7957816375b238fc1462000d3c57816378a8956714620002d45781637b71586b1462000c0f5781638456cb591462000bae5781638e0ad1cc14620008a75781638e445e75146200082657816391d1485414620007dc57816399f81d391462000756578163a217fddf1462000739578163bff4768914620003ea578163c187645314620003a9578163c4091236146200031c578163c922644514620002f5578163cfdeed6214620002d4578163d547741f146200028957508063e63ab1e9146200024d578063e81c559d14620001a95763ecd00261146200016a57600080fd5b34620001a55781600319360112620001a557602090517ffc425f2263d0df187444b70e47283d622c70181c5baebb1306a01edba1ce184c8152f35b5080fd5b5090346200024a57806003193601126200024a57600554620001cb8162001520565b91620001da845193846200121d565b8183526005815260207f036b6384b5eca791c62761152d0c79bb0604c104a5fb6f4eb0703f3154bb3db08185015b8484106200022b578651602080825281906200022790820189620013f7565b0390f35b60018381926200023b856200123f565b81520192019301929062000208565b80fd5b5034620001a55781600319360112620001a557602090517f65d7a28e3265b37a6474929f336521b332c1681b933f6cb9f3376673440d862a8152f35b91905034620002d05780600319360112620002d057620002cc9135620002c66001620002b46200133c565b93838752866020528620015462001931565b62001d2e565b5080f35b8280fd5b505034620001a55781600319360112620001a5576020906006549051908152f35b8284346200024a57806003193601126200024a575060065460055482519182526020820152f35b8284346200024a5760203660031901126200024a578235906001600160401b0382116200024a57506200035390369084016200136f565b91909281518385823760038185019081528190036020019020546001600160a01b031692831562000388576020848451908152f35b620003a590859351938493636cf15a3d60e11b855284016200148d565b0390fd5b905034620002d0576020366003190112620002d05760209260ff918391906001600160a01b03620003d962001358565b168252855220541690519015158152f35b905034620002d05760209182600319360112620007355781356001600160401b03811162000731576200042190369084016200136f565b937fa49807205ce4d355092ef5a8a18f56e8913cf4a201fbe287825b095693c21775808752868252838720338852825260ff848820541615620007135750825185838237600381870190815281900382019020546001600160a01b03168015620006f457835186848237828188810160038152030190206bffffffffffffffffffffffff60a01b815416905586528381528286209260ff1993848154169055865b6005805480831015620006e557908691620004dd8462001144565b5085518c8181845494620004f18662001192565b908184528c8401968d60019b8c83169283600014620006c65750505060011462000685575b505062000526925003826200121d565b51902062000536368c8a620013bb565b878151910120146200054e57505050600101620004c2565b94955095509596509050600019918281019081116200067257620005766200057e9162001144565b509162001144565b6200066057906200058f9162001765565b825480156200064d570192620005a58462001144565b9190916200063b5790869291620005bd825462001192565b9081620005f5575b5050505050555b600654908115620005e257506000190160065580f35b634e487b7160e01b835260119052602482fd5b8490601f8084116001146200061757505050509050555b8338808080620005c5565b849395839562000633945285209501871c850190850162001702565b55556200060c565b634e487b7160e01b8752868652602487fd5b634e487b7160e01b875260318652602487fd5b634e487b7160e01b8852878752602488fd5b634e487b7160e01b885260118752602488fd5b8c92508452888285205b828610620006ab5750505062000526928201018f923862000516565b809192945054838688010152019201918391888c926200068f565b9250925093506200052695501686521515871b8201018f923862000516565b505050505050509050620005cc565b50509051636cf15a3d60e11b8152928392620003a5929084016200148d565b835163e2517d3f60e01b815233818701526024810191909152604490fd5b8480fd5b8380fd5b505034620001a55781600319360112620001a55751908152602090f35b83915034620001a55782600319360112620001a5576200077c8391602435903562001571565b9092620007938351948486958652850190620013f7565b60208482036020860152602080855193848152019401925b828110620007bb57505050500390f35b83516001600160a01b031685528695509381019392810192600101620007ab565b905034620002d05781600319360112620002d0578160209360ff92620008016200133c565b903582528186528282206001600160a01b039091168252855220549151911615158152f35b8284346200024a5760203660031901126200024a578235906001600160401b0382116200024a57366023830112156200024a57506020928160246200087193369301359101620013bb565b826200088683519283815193849201620012f0565b6003908201908152819003830190205490516001600160a01b039091168152f35b905082346200024a5760209283600319360112620001a55782356001600160401b038111620002d057620008df90369085016200136f565b9091805194620008ef86620011cf565b8460a0606097888152888a8201528885820152888082015282608082015201528151938381863760038585019081528590038801909420546001600160a01b039490851693841562000b9157505081516306fdde0360e01b81529585878381875afa96871562000b8757869762000b67575b5082516395d89b4160e01b815286818481885afa90811562000b5d57879162000b3f575b50835163643e5f2b60e11b81529087828581895afa91821562000b3557889262000b15575b50845163f5ec2eed60e01b815293888582818a5afa94851562000b0b57899562000ae2575b508a8651809263d5abeb0160e01b8252818a5afa98891562000ad757809962000a9f575b505084519862000a038a620011cf565b89528989019081528489019182528289019384526080890197885260a089019586528451998a99818b5251908a0160c0905260e08a0162000a449162001315565b905190601f1995868b830301908b015262000a5f9162001315565b90519184898303019089015262000a769162001315565b90519186820301608087015262000a8d9162001315565b925160a0850152511660c08301520390f35b909198508a82813d831162000acf575b62000abb81836200121d565b810103126200024a575051968a80620009f3565b503d62000aaf565b8651903d90823e3d90fd5b62000b039195503d808b833e62000afa81836200121d565b810190620014b5565b938b620009cf565b86513d8b823e3d90fd5b62000b2d9192503d808a833e62000afa81836200121d565b908a620009aa565b85513d8a823e3d90fd5b62000b5691503d8089833e62000afa81836200121d565b8962000985565b84513d89823e3d90fd5b62000b7f9197503d8088833e62000afa81836200121d565b958862000961565b83513d88823e3d90fd5b9251636cf15a3d60e11b8152928392620003a5929084016200148d565b505034620001a55781600319360112620001a55760207f62e78cea01bee320cd4e420270b5ea74000d11b0c9f74754ebdbfc544b05a2589162000bf0620018d4565b62000bfa6200197c565b600160ff19600254161760025551338152a180f35b8284346200024a5760e03660031901126200024a576001600160401b03928035848111620002d05762000c4690369083016200136f565b949091602435828111620007315762000c6390369083016200136f565b91909260443581811162000d385762000c8090369084016200136f565b92909160643590811162000d345762000c9c913691016200136f565b60c435996001600160a01b03989297919692898c168c036200024a57509262000d0360209b97959362000cfa62000d0c9462000d289b999762000cde62001859565b62000ce862001958565b62000cf26200197c565b3691620013bb565b953691620013bb565b923691620013bb565b9062000d2160a43595608435953691620013bb565b926200199b565b91600180555191168152f35b8780fd5b8680fd5b505034620001a55781600319360112620001a557602090517fa49807205ce4d355092ef5a8a18f56e8913cf4a201fbe287825b095693c217758152f35b505034620001a55781600319360112620001a55760209060ff6002541690519015158152f35b905034620002d05782600319360112620002d05762000dbd620018d4565b6002549060ff82161562000e00575060ff1916600255513381527f5db9ee0a495bf2e6ff9c91a7834c1ba4fdd244a5e8aa4e537bd38aeae4b073aa90602090a180f35b8251638dfc202b60e01b8152fd5b838334620001a55780600319360112620001a55762000e2c6200133c565b90336001600160a01b0383160362000e4c5750620002cc91923562001d2e565b5163334bd91960e11b81528390fd5b91905034620002d05780600319360112620002d057620002cc913562000e866001620002b46200133c565b62001caf565b905034620002d0576020366003190112620002d057816020936001923581528085522001549051908152f35b91905034620002d05780600319360112620002d05781356001600160401b03928382116200073157366023830112156200073157818101359384116200073157602460053660248760051b8601011162000d385762000f166200133c565b9262000f2162001859565b62000f2b62001958565b62000f356200197c565b8615620010735750923681900360e2190190875b87811062000f8357887f252327a7a6376217d2559685074997775353b3c2d82c7cce27f2792a8b81883860208a8a51908152a16001805580f35b8381871b8301013590838212156200106f5760019183018686820191606481018b62000fb0828662001458565b8091925192833781019060038252602081898060a01b03930301902054161562000fe0575b505050500162000f49565b62001025620010476200103362000d2162001050886200100581620010649b62001458565b9590976200103e6200101b60448c018562001458565b9990928562001458565b97909460848d019062001458565b9a90983691620013bb565b973691620013bb565b933691620013bb565b9260a460c4880135970135953691620013bb565b503886818062000fd5565b8980fd5b8551634ec4810560e11b8152fd5b8284346200024a5760203660031901126200024a578235600554811015620001a557620010ae9062001144565b939093620010da576200022783620010c6866200123f565b905191829160208352602083019062001315565b634e487b7160e01b8252819052602490fd5b849134620002d0576020366003190112620002d0573563ffffffff60e01b8116809103620002d05760209250637965db0b60e01b811490811562001132575b5015158152f35b6301ffc9a760e01b149050836200112b565b6005548110156200117c5760056000527f036b6384b5eca791c62761152d0c79bb0604c104a5fb6f4eb0703f3154bb3db00190600090565b634e487b7160e01b600052603260045260246000fd5b90600182811c92168015620011c4575b6020831014620011ae57565b634e487b7160e01b600052602260045260246000fd5b91607f1691620011a2565b60c081019081106001600160401b03821117620011eb57604052565b634e487b7160e01b600052604160045260246000fd5b602081019081106001600160401b03821117620011eb57604052565b90601f801991011681019081106001600160401b03821117620011eb57604052565b90604051918260008254620012548162001192565b90818452602094600191600181169081600014620012cc575060011462001289575b50505062001287925003836200121d565b565b600090815285812095935091905b818310620012b357505062001287935082010138808062001276565b8554888401850152948501948794509183019162001297565b925050506200128794925060ff191682840152151560051b82010138808062001276565b60005b838110620013045750506000910152565b8181015183820152602001620012f3565b906020916200133081518092818552858086019101620012f0565b601f01601f1916010190565b602435906001600160a01b03821682036200135357565b600080fd5b600435906001600160a01b03821682036200135357565b9181601f8401121562001353578235916001600160401b0383116200135357602083818601950101116200135357565b6001600160401b038111620011eb57601f01601f191660200190565b929192620013c9826200139f565b91620013d960405193846200121d565b82948184528183011162001353578281602093846000960137010152565b90808251908181526020809101926020808460051b8301019501936000915b848310620014275750505050505090565b909192939495848062001447600193601f198682030187528a5162001315565b980193019301919493929062001416565b903590601e19813603018212156200135357018035906001600160401b03821162001353576020019181360383136200135357565b90918060409360208452816020850152848401376000828201840152601f01601f1916010190565b60208183031262001353578051906001600160401b03821162001353570181601f8201121562001353578051620014ec816200139f565b92620014fc60405194856200121d565b8184526020828401011162001353576200151d9160208085019101620012f0565b90565b6001600160401b038111620011eb5760051b60200190565b919082018092116200154657565b634e487b7160e01b600052601160045260246000fd5b80518210156200117c5760209160051b010190565b90916005549283831015620016cf576200158c908362001538565b92808411620016c6575b508183039283116200154657620015ad8362001520565b92604093620015c060405191826200121d565b818152601f1980620015d28462001520565b0160005b818110620016b45750508195620015ed8462001520565b92620015fd60405194856200121d565b8484526200160b8562001520565b602093013685850137839660005b8681106200162a5750505050505050565b806200164e62001647620016416001948662001538565b62001144565b506200123f565b6200165a82866200155c565b526200166781856200155c565b506200167481856200155c565b51866200168a87519283815193849201620012f0565b810190600382528781858060a01b0393030190205416620016ac82896200155c565b520162001619565b806060602080938701015201620015d6565b92503862001596565b5091505060405190620016e28262001201565b6000825260405191620016f58362001201565b6000835260003681379190565b8181106200170e575050565b6000815560010162001702565b9190601f81116200172b57505050565b62001287926000526020600020906020601f840160051c830193106200175a575b601f0160051c019062001702565b90915081906200174c565b9080821462001855576200177a815462001192565b906001600160401b038211620011eb57620017a2826200179b855462001192565b856200171b565b600090601f8311600114620017e657620017d6929160009183620017da575b50508160011b916000199060031b1c19161790565b9055565b015490503880620017c1565b815260208082208483528183209291601f1985169083905b8282106200183b57505090846001959493921062001821575b505050811b019055565b015460001960f88460031b161c1916905538808062001817565b8495819295850154815560018091019601940190620017fe565b5050565b3360009081527f740c5e3e456bed56f053f960110118ba9b95a1f5359a82283516fb2e81b6e37e60205260409020547ffc425f2263d0df187444b70e47283d622c70181c5baebb1306a01edba1ce184c9060ff1615620018b65750565b6044906040519063e2517d3f60e01b82523360048301526024820152fd5b3360009081527ff7c9542c591017a21c74b6f3fab6263c7952fc0aaf9db4c22a2a04ddc7f8674f60205260409020547f65d7a28e3265b37a6474929f336521b332c1681b933f6cb9f3376673440d862a9060ff1615620018b65750565b80600052600060205260406000203360005260205260ff6040600020541615620018b65750565b6002600154146200196a576002600155565b604051633ee5aeb560e01b8152600490fd5b60ff600254166200198957565b60405163d93c066560e01b8152600490fd5b939592919060409182519181519260209687840194620019bd818488620012f0565b820160038152828960018060a01b0394859303019020541662001c8c57811695861562001c7b57855190612f408083016001600160401b039584821087831117620011eb578a9362001a4d62001a3f8f8f909462001a3162001a5c9660c09962001da58d3960e0895260e089019062001315565b918783039088015262001315565b8481038d8601528a62001315565b90838203606085015262001315565b9d60808201528c60a082015201528060009b03908bf0801562001c7157169884518781855162001a8e81838a620012f0565b810160038152030190208a6bffffffffffffffffffffffff60a01b82541617905589815260048752848120916001928360ff198254161790556005546801000000000000000081101562001c4957808462001aed920160055562001144565b91909162001c5d57845190811162001c495762001b178162001b10845462001192565b846200171b565b88601f821160011462001be857908062001b4792859162001bdc575b508160011b916000199060031b1c19161790565b90555b60065490600019821462001bc857507f6288b383d36d17319f2bbaeddd22415b2ce942d00f3babc4e4a8851452727d12969362001bbb96938b9a99969362001ba193016006558351928392839251928391620012f0565b810103902096815195869560608752606087019062001315565b938501528301520390a390565b634e487b7160e01b81526011600452602490fd5b90508601513862001b33565b828452898420859291601f198316865b8d82821062001c32575050831162001c18575b5050811b01905562001b4a565b87015160001960f88460031b161c19169055388062001c0b565b838b01518555899690940193928301920162001bf8565b634e487b7160e01b83526041600452602483fd5b634e487b7160e01b83526004839052602483fd5b85513d8c823e3d90fd5b855163d92e233d60e01b8152600490fd5b855163553f459960e11b81526004810189905280620003a5602482018762001315565b9060009180835282602052604083209160018060a01b03169182845260205260ff6040842054161560001462001d2957808352826020526040832082845260205260408320600160ff198254161790557f2f8788117e7eff1d82e926ec794901d17c78024a50270940304540a733656f0d339380a4600190565b505090565b9060009180835282602052604083209160018060a01b03169182845260205260ff60408420541660001462001d295780835282602052604083208284526020526040832060ff1981541690557ff6391f5c32d9c69d2a47ea670b442974b53935d1edc7fd64eb21e047a839171b339380a460019056fe610160806040523462000a2c5762002f40803803809162000021828562000a31565b833981019060e08183031262000a2c5780516001600160401b03811162000a2c57826200005091830162000a7a565b60208201516001600160401b03811162000a2c57836200007291840162000a7a565b60408301516001600160401b03811162000a2c57846200009491850162000a7a565b606084015190946001600160401b03821162000a2c57620000b791850162000a7a565b9360808401519160c060a08601519501519360018060a01b038516850362000a2c5760408051929083016001600160401b03811184821017620005fb5760405260018352603160f81b602084015281516001600160401b038111620005fb57600354600181811c9116801562000a21575b6020821014620005da57601f8111620009bb575b50806020601f8211600114620009315760009162000925575b508160011b916000199060031b1c1916176003555b8051906001600160401b038211620005fb5760045490600182811c921680156200091a575b6020831014620005da5781601f849311620008a5575b50602090601f831160011462000816576000926200080a575b50508160011b916000199060031b1c1916176004555b620001df8162000dd3565b61012052620001ee8262000f78565b6101405260208151910120908160e0526020815191012080610100524660a0526040519060208201927f8b73c3c69bb8fe3d512ecc4cf759cc79239f7b179b0ffacaa9a75d522b39400f8452604083015260608201524660808201523060a082015260a0815260c081019181831060018060401b03841117620005fb576040839052815190206080523060c0526001600a5569d3c21bcecceda100000060115569152d02c7e14af68000006012556001600160a01b03851615620007c65750508115620007775781841162000728578051906001600160401b038211620005fb57600b5490600182811c921680156200071d575b6020831014620005da5781601f849311620006a8575b50602090601f83116001146200061d5760009262000611575b50508160011b916000199060031b1c191617600b555b83516001600160401b038111620005fb57600c54600181811c91168015620005f0575b6020821014620005da57601f811162000570575b50602094601f82116001146200050357948192939495600092620004f7575b50508160011b916000199060031b1c191617600c555b600d55620003a18162000ad5565b50620003ad8162000b56565b50620003b98162000bf9565b50620003c58162000c97565b50620003d18162000d35565b50816200042b575b604051611e509081620010d082396080518161186c015260a05181611938015260c05181611836015260e051816118bb015261010051816118e1015261012051816109af015261014051816109d90152f35b60ff60085416620004e557600254828101809111620004cf576002556001600160a01b038116600081815260208181526040808320805487019055518581527f3f2c9d57c068687834f0de942a9babb9e5acab57d516d3480a3c16ee165a42739491939192907fddf252ad1be2c89b69c2b068fc378daa952ba7f163c4a11628f55a4df523b3ef908590a36040519384526001600160a01b031692a23880620003d9565b634e487b7160e01b600052601160045260246000fd5b60405163d93c066560e01b8152600490fd5b0151905038806200037d565b601f19821695600c60005260206000209160005b88811062000557575083600195969798106200053d575b505050811b01600c5562000393565b015160001960f88460031b161c191690553880806200052e565b9192602060018192868501518155019401920162000517565b600c6000527fdf6966c971051c3d54ec59162606531493a51404a002842f56009d7e5cf4a8c7601f830160051c81019160208410620005cf575b601f0160051c01905b818110620005c257506200035e565b60008155600101620005b3565b9091508190620005aa565b634e487b7160e01b600052602260045260246000fd5b90607f16906200034a565b634e487b7160e01b600052604160045260246000fd5b01519050388062000311565b600b60009081527f0175b7a638427703f0dbe7bb9bbf987a2551717b34e79f33b5b1008d1fa01db99350601f198516905b8181106200068f575090846001959493921062000675575b505050811b01600b5562000327565b015160001960f88460031b161c1916905538808062000666565b929360206001819287860151815501950193016200064e565b600b6000529091507f0175b7a638427703f0dbe7bb9bbf987a2551717b34e79f33b5b1008d1fa01db9601f840160051c8101916020851062000712575b90601f859493920160051c01905b818110620007025750620002f8565b60008155849350600101620006f3565b9091508190620006e5565b91607f1691620002e2565b60405162461bcd60e51b815260206004820152602160248201527f496e697469616c20737570706c792065786365656473206d617820737570706c6044820152607960f81b6064820152608490fd5b60405162461bcd60e51b815260206004820152602160248201527f4d617820737570706c79206d7573742062652067726561746572207468616e206044820152600360fc1b6064820152608490fd5b62461bcd60e51b8252602060c4820152601c60e48201527f41646d696e2063616e6e6f74206265207a65726f20616464726573730000000061010490910152606490fd5b015190503880620001be565b6004600090815293507f8a35acfbc15ff81a39ae7d344fd709f28e8600b4aa8c65c6b64bfe7fe36bd19b91905b601f198416851062000889576001945083601f198116106200086f575b505050811b01600455620001d4565b015160001960f88460031b161c1916905538808062000860565b8181015183556020948501946001909301929091019062000843565b60046000529091507f8a35acfbc15ff81a39ae7d344fd709f28e8600b4aa8c65c6b64bfe7fe36bd19b601f840160051c810191602085106200090f575b90601f859493920160051c01905b818110620008ff5750620001a5565b60008155849350600101620008f0565b9091508190620008e2565b91607f16916200018f565b90508301513862000155565b6003600090815292507fc2575a0e9e593c00f959f8c92f12db2869c3395a3b0502d05e2516446f71f85b905b601f1983168410620009a2576001935082601f1981161062000988575b5050811b016003556200016a565b85015160001960f88460031b161c1916905538806200097a565b858101518255602093840193600190920191016200095d565b60036000527fc2575a0e9e593c00f959f8c92f12db2869c3395a3b0502d05e2516446f71f85b601f830160051c81016020841062000a19575b601f830160051c8201811062000a0c5750506200013c565b60008155600101620009f4565b5080620009f4565b90607f169062000128565b600080fd5b601f909101601f19168101906001600160401b03821190821017620005fb57604052565b60005b83811062000a695750506000910152565b818101518382015260200162000a58565b81601f8201121562000a2c5780516001600160401b038111620005fb576040519262000ab1601f8301601f19166020018562000a31565b8184526020828401011162000a2c5762000ad2916020808501910162000a55565b90565b6001600160a01b031660008181527fec8156718a8372b1db44bb411437d0870f3e3790d4a08526d024ce1b0b668f6b602052604081205490919060ff1662000b525781805260096020526040822081835260205260408220600160ff19825416179055339160008051602062002f208339815191528180a4600190565b5090565b6001600160a01b031660008181527fd5d09b8f3165a736d25b1a14611612ac91830c1b82012b1c33b2dac7c90a064960205260408120549091907f9f2df0fed2c77648de5860a4cc508cd0818c85b8b8a1ab4ceeef8d981c8956a69060ff1662000bf45780835260096020526040832082845260205260408320600160ff1982541617905560008051602062002f20833981519152339380a4600190565b505090565b6001600160a01b031660008181527fafc27dadd95cc92cc3511384503afbc19841fe8e9d61fefc7f2fb1e6a3bd40c260205260408120549091907f3c11d16cbaffd01df69ce1c404f6340ee057498f5f00246190ea54220576a8489060ff1662000bf45780835260096020526040832082845260205260408320600160ff1982541617905560008051602062002f20833981519152339380a4600190565b6001600160a01b031660008181527f84574a31e2f767388bfa57bc81ff2590df95d3022c04c363cca3e37ee960863160205260408120549091907f65d7a28e3265b37a6474929f336521b332c1681b933f6cb9f3376673440d862a9060ff1662000bf45780835260096020526040832082845260205260408320600160ff1982541617905560008051602062002f20833981519152339380a4600190565b6001600160a01b031660008181527f4fcb20797bc22b6bdf05ed948026fdc1b31b30d107ac0811a08b18c975bbd64b60205260408120549091907f442a94f1a1fac79af32856af2a64f63648cfa2ef3b98610a5bb7cbec4cee69859060ff1662000bf45780835260096020526040832082845260205260408320600160ff1982541617905560008051602062002f20833981519152339380a4600190565b8051602091908281101562000e53575090601f82511162000e11578082519201519080831062000e0257501790565b82600019910360031b1b161790565b60449062000e459260405193849263305a27a960e01b84528060048501528251928391826024870152868601910162000a55565b601f01601f19168101030190fd5b6001600160401b038111620005fb576005928354926001938481811c9116801562000f6d575b83821014620005da57601f811162000f36575b5081601f841160011462000ecc575092829391839260009462000ec0575b50501b916000199060031b1c191617905560ff90565b01519250388062000eaa565b919083601f1981168760005284600020946000905b8883831062000f1b575050501062000f01575b505050811b01905560ff90565b015160001960f88460031b161c1916905538808062000ef4565b85870151885590960195948501948793509081019062000ee1565b8560005284601f846000209201871c820191601f8601881c015b82811062000f6057505062000e8c565b6000815501859062000f50565b90607f169062000e79565b80516020908181101562000fa55750601f82511162000e11578082519201519080831062000e0257501790565b906001600160401b038211620005fb57600654926001938481811c91168015620010c4575b83821014620005da57601f81116200108a575b5081601f84116001146200101e575092829391839260009462001012575b50501b916000199060031b1c19161760065560ff90565b01519250388062000ffb565b919083601f198116600660005284600020946000905b888383106200106f575050501062001055575b505050811b0160065560ff90565b015160001960f88460031b161c1916905538808062001047565b85870151885590960195948501948793509081019062001034565b600660005284601f84600020920160051c820191601f860160051c015b828110620010b757505062000fdd565b60008155018590620010a7565b90607f169062000fca56fe608060408181526004918236101561001657600080fd5b60009260e08435811c92836301ffc9a71461118a57508263062d3bd71461114e57826306fdde0314611128578263095ea7b3146110fd57826318160ddd146110dd5782631e293c101461108e57826323b872dd14610f9a578263248a9ca314610f6e5782632803212f14610f05578263282c51f314610ec95782632f2ff15d14610e9f578263313ce56714610e825782633644e51514610e5d57826336568abe14610e165782633e6968b614610df55782633f4ba83a14610d8a57826340c10f1914610be05782635c975abb14610bbb57826370a0823114610b835782637d89d05c14610b4a5782637ecebe0014610b115782638456cb5914610ab557826384b0196e1461099757826391d148541461094f57826395d89b41146109295782639dc29fac14610740578263a217fddf14610724578263a9059cbb146106f2578263abb1dc4414610624578263c76b088814610604578263c87cbe56146105de578263c8c8ebe4146105be578263d01dd6d21461053b578263d505accf146103d557508163d53913931461039a578163d547741f1461035657508063d5abeb0114610338578063dbac26e9146102fb578063dd62ed3e146102b3578063e63ab1e914610279578063f5ec2eed146102385763fdb98082146101f557600080fd5b3461023457806003193601126102345760209181906001600160a01b0361021a61121e565b168152601084528181206024358252845220549051908152f35b5080fd5b50346102345781600319360112610234578051610275916102638261025c81611459565b0383611519565b519182916020835260208301906111de565b0390f35b5034610234578160031936011261023457602090517f65d7a28e3265b37a6474929f336521b332c1681b933f6cb9f3376673440d862a8152f35b5034610234578060031936011261023457806020926102d061121e565b6102d8611239565b6001600160a01b0391821683526001865283832091168252845220549051908152f35b50346102345760203660031901126102345760209160ff9082906001600160a01b0361032561121e565b168152600e855220541690519015158152f35b5034610234578160031936011261023457602090600d549051908152f35b91905034610396578060031936011261039657610392913561038d600161037b611239565b93838752600960205286200154611634565b61195e565b5080f35b8280fd5b505034610234578160031936011261023457602090517f9f2df0fed2c77648de5860a4cc508cd0818c85b8b8a1ab4ceeef8d981c8956a68152f35b90849250346103965781600319360112610396576103f161121e565b6103f9611239565b916044359360643560843560ff8116810361053757814211610520578860018060a01b039283871694858b526007602052828b20918254926001840190558351928760208501957f6e71edae12b1b97f4d1f60370fef10105fa2faae0126114a169c64845d6126c98752850152868b1660608501528b608085015260a084015260c083015260c08252810181811067ffffffffffffffff82111761050d578b525190206104db916104d2916104ac611833565b908c519161190160f01b83526002830152602282015260c43591604260a4359220611c6d565b90929192611cfd565b168181036104f257866104ef8787876119f8565b80f35b87516325c0072360e11b815292830152602482015260449150fd5b634e487b7160e01b8b526041875260248bfd5b885163313c898160e11b8152808501839052602490fd5b8780fd5b5050503461023457806003193601126102345761055661121e565b602435908115158092036105ba577fcf3473b85df1594d47b6958f29a32bea0abff9dd68296f7bf33443646793cfd89160209161059161155e565b6001600160a01b0316808652600e8352848620805460ff191660ff84161790559351908152a280f35b8380fd5b505050346102345781600319360112610234576020906012549051908152f35b505050346102345781600319360112610234578051610275916102638261025c816113cb565b505050346102345781600319360112610234576020906011549051908152f35b839085346106ef57806003193601126106ef575081519161064f8361064881611289565b0384611519565b80519061065f8261025c8161133d565b6106d9600254926106cb600d549380516106838161067c816113cb565b0382611519565b6106be82519461069d8661069681611459565b0387611519565b6106b084519b8b8d9c8d528c01906111de565b908a820360208c01526111de565b91888303908901526111de565b9085820360608701526111de565b91608084015260a0830152601260c08301520390f35b80fd5b5050503461023457806003193601126102345760209061071d61071361121e565b602435903361165a565b5160018152f35b5050503461023457816003193601126102345751908152602090f35b5090503461039657816003193601126103965761075b61121e565b91602435907f3c11d16cbaffd01df69ce1c404f6340ee057498f5f00246190ea54220576a8489283865260209360098552828720338852855260ff83882054161561090e57506107a96119d5565b6001600160a01b0385169485156108cc5785875286855283838820541061088a576107d2611a8b565b858752868552828720549184831061085657505090827ffd38818f5291bf0bb3a2a48aadc06ba8757865d1dabd804585338aab3009dcb69493928688528785520381872055816002540360025585857fddf252ad1be2c89b69c2b068fc378daa952ba7f163c4a11628f55a4df523b3ef858451868152a351908152a26001600a5580f35b835163391434e360e21b81526001600160a01b03909216908201908152602081018390526040810185905281906060010390fd5b5083606492519162461bcd60e51b8352820152601c60248201527f496e73756666696369656e742062616c616e636520746f206275726e000000006044820152fd5b5083606492519162461bcd60e51b8352820152601d60248201527f43616e6e6f74206275726e2066726f6d207a65726f20616464726573730000006044820152fd5b604492519163e2517d3f60e01b835233908301526024820152fd5b505050346102345781600319360112610234578051610275916102638261025c8161133d565b509050346103965781600319360112610396578160209360ff92610971611239565b90358252600986528282206001600160a01b039091168252855220549151911615158152f35b908385346106ef57806003193601126106ef576109d37f0000000000000000000000000000000000000000000000000000000000000000611aa9565b906109fd7f0000000000000000000000000000000000000000000000000000000000000000611bad565b92805193602093602086019686881067ffffffffffffffff891117610aa25750959390610a5883602092878b999652868652610a4b82519a8b9a600f60f81b8c5280878d01528b01906111de565b91898303908a01526111de565b924660608801523060808801528460a088015286840360c088015251928381520193925b828110610a8b57505050500390f35b835185528695509381019392810192600101610a7c565b634e487b7160e01b855260419052602484fd5b5050503461023457816003193601126102345760207f62e78cea01bee320cd4e420270b5ea74000d11b0c9f74754ebdbfc544b05a25891610af46115d8565b610afc611a8b565b600160ff19600854161760085551338152a180f35b505050346102345760203660031901126102345760209181906001600160a01b03610b3a61121e565b1681526007845220549051908152f35b505050346102345760203660031901126102345760209181906001600160a01b03610b7361121e565b168152600f845220549051908152f35b505050346102345760203660031901126102345760209181906001600160a01b03610bac61121e565b16815280845220549051908152f35b5050503461023457816003193601126102345760209060ff6008541690519015158152f35b84828534610396578060031936011261039657610bfb61121e565b90602435907f9f2df0fed2c77648de5860a4cc508cd0818c85b8b8a1ab4ceeef8d981c8956a69283865260209360098552828720338852855260ff838820541615610d6c5750610c496119d5565b6001600160a01b0316938415610d2b5760025490610c67848361153b565b600d5410610cef575090610ca6837f3f2c9d57c068687834f0de942a9babb9e5acab57d516d3480a3c16ee165a4273959493610ca1611a8b565b61153b565b60025584865285835280862082815401905584867fddf252ad1be2c89b69c2b068fc378daa952ba7f163c4a11628f55a4df523b3ef858451868152a351908152a26001600a5580f35b825162461bcd60e51b8152908101859052601660248201527545786365656473206d6178696d756d20737570706c7960501b6044820152606490fd5b83606492519162461bcd60e51b8352820152601b60248201527f43616e6e6f74206d696e7420746f207a65726f206164647265737300000000006044820152fd5b825163e2517d3f60e01b815233818801526024810191909152604490fd5b50905034610396578260031936011261039657610da56115d8565b6008549060ff821615610de7575060ff1916600855513381527f5db9ee0a495bf2e6ff9c91a7834c1ba4fdd244a5e8aa4e537bd38aeae4b073aa90602090a180f35b8251638dfc202b60e01b8152fd5b50505034610234578160031936011261023457602090516201518042048152f35b50838334610234578060031936011261023457610e31611239565b90336001600160a01b03831603610e4e575061039291923561195e565b5163334bd91960e11b81528390fd5b50505034610234578160031936011261023457602090610e7b611833565b9051908152f35b505050346102345781600319360112610234576020905160128152f35b848285346103965780600319360112610396576103929135610ec4600161037b611239565b6117b3565b50505034610234578160031936011261023457602090517f3c11d16cbaffd01df69ce1c404f6340ee057498f5f00246190ea54220576a8488152f35b505050346102345780600319360112610234577fd3d22ffd28b02735cf411bd7f925bd8da01212c7028153e0d632e2953ac3088e6020610f4361121e565b60243590610f4f61155e565b6001600160a01b0316808652600f83528486208290559351908152a280f35b509050346103965760203660031901126103965781602093600192358152600985522001549051908152f35b838286346106ef5760603660031901126106ef57610fb661121e565b610fbe611239565b916044359360018060a01b038316808352600160205286832033845260205286832054916000198310610ffa575b60208861071d89898961165a565b86831061106257811561104b5733156110345750825260016020908152868320338452815291869020908590039055829061071d87610fec565b8751634a1406b160e11b8152908101849052602490fd5b875163e602df0560e01b8152908101849052602490fd5b8751637dc7a0d960e11b8152339181019182526020820193909352604081018790528291506060010390fd5b50905034610396576020366003190112610396577f7c1cb3702d8e1fa6d24b12dd90670ab69c6d66d58233103d37da8b07d6b850ac9160209135906110d161155e565b8160125551908152a180f35b505050346102345781600319360112610234576020906002549051908152f35b5050503461023457806003193601126102345760209061071d61111e61121e565b60243590336119f8565b505050346102345781600319360112610234578051610275916102638261025c81611289565b50505034610234578160031936011261023457602090517f442a94f1a1fac79af32856af2a64f63648cfa2ef3b98610a5bb7cbec4cee69858152f35b85908334610396576020366003190112610396573563ffffffff60e01b81168091036103965760209250637965db0b60e01b81149081156111cd575b5015158152f35b6301ffc9a760e01b149050836111c6565b919082519283825260005b84811061120a575050826000602080949584010152601f8019910116010190565b6020818301810151848301820152016111e9565b600435906001600160a01b038216820361123457565b600080fd5b602435906001600160a01b038216820361123457565b90600182811c9216801561127f575b602083101461126957565b634e487b7160e01b600052602260045260246000fd5b91607f169161125e565b600354600092916112998261124f565b8082529160209060019081811690811561131857506001146112bc575b50505050565b9293945060036000527fc2575a0e9e593c00f959f8c92f12db2869c3395a3b0502d05e2516446f71f85b926000935b8585106113055750505060209250010190388080806112b6565b80548585018401529382019381016112eb565b92505050602093945060ff929192191683830152151560051b010190388080806112b6565b6004546000929161134d8261124f565b80825291602090600190818116908115611318575060011461136f5750505050565b9293945060046000527f8a35acfbc15ff81a39ae7d344fd709f28e8600b4aa8c65c6b64bfe7fe36bd19b926000935b8585106113b85750505060209250010190388080806112b6565b805485850184015293820193810161139e565b600b54600092916113db8261124f565b8082529160209060019081811690811561131857506001146113fd5750505050565b92939450600b6000527f0175b7a638427703f0dbe7bb9bbf987a2551717b34e79f33b5b1008d1fa01db9926000935b8585106114465750505060209250010190388080806112b6565b805485850184015293820193810161142c565b600c54600092916114698261124f565b80825291602090600190818116908115611318575060011461148b5750505050565b92939450600c6000527fdf6966c971051c3d54ec59162606531493a51404a002842f56009d7e5cf4a8c7926000935b8585106114d45750505060209250010190388080806112b6565b80548585018401529382019381016114ba565b6040810190811067ffffffffffffffff82111761150357604052565b634e487b7160e01b600052604160045260246000fd5b90601f8019910116810190811067ffffffffffffffff82111761150357604052565b9190820180921161154857565b634e487b7160e01b600052601160045260246000fd5b3360009081527f4fcb20797bc22b6bdf05ed948026fdc1b31b30d107ac0811a08b18c975bbd64b60205260409020547f442a94f1a1fac79af32856af2a64f63648cfa2ef3b98610a5bb7cbec4cee69859060ff16156115ba5750565b6044906040519063e2517d3f60e01b82523360048301526024820152fd5b3360009081527f84574a31e2f767388bfa57bc81ff2590df95d3022c04c363cca3e37ee960863160205260409020547f65d7a28e3265b37a6474929f336521b332c1681b933f6cb9f3376673440d862a9060ff16156115ba5750565b80600052600960205260406000203360005260205260ff60406000205416156115ba5750565b90916001600160a01b038083169290831561179a57841693841561178157826116839183611d82565b15611745576000838152601060205260409182822062015180420483526020528282206116b185825461153b565b90556116bb611a8b565b848252816020528282205490848210611714575091808285602095887fddf252ad1be2c89b69c2b068fc378daa952ba7f163c4a11628f55a4df523b3ef98965282875203828220558781522082815401905551908152a3565b835163391434e360e21b81526001600160a01b03919091166004820152602481019190915260448101849052606490fd5b60405162461bcd60e51b8152602060048201526014602482015273151c985b9cd9995c881b9bdd08185b1b1bddd95960621b6044820152606490fd5b60405163ec442f0560e01b815260006004820152602490fd5b604051634b637e8f60e11b815260006004820152602490fd5b906000918083526009602052604083209160018060a01b03169182845260205260ff6040842054161560001461182e5780835260096020526040832082845260205260408320600160ff198254161790557f2f8788117e7eff1d82e926ec794901d17c78024a50270940304540a733656f0d339380a4600190565b505090565b307f00000000000000000000000000000000000000000000000000000000000000006001600160a01b03161480611935575b1561188e577f000000000000000000000000000000000000000000000000000000000000000090565b60405160208101907f8b73c3c69bb8fe3d512ecc4cf759cc79239f7b179b0ffacaa9a75d522b39400f82527f000000000000000000000000000000000000000000000000000000000000000060408201527f000000000000000000000000000000000000000000000000000000000000000060608201524660808201523060a082015260a0815260c0810181811067ffffffffffffffff8211176115035760405251902090565b507f00000000000000000000000000000000000000000000000000000000000000004614611865565b906000918083526009602052604083209160018060a01b03169182845260205260ff60408420541660001461182e578083526009602052604083208284526020526040832060ff1981541690557ff6391f5c32d9c69d2a47ea670b442974b53935d1edc7fd64eb21e047a839171b339380a4600190565b6002600a54146119e6576002600a55565b604051633ee5aeb560e01b8152600490fd5b6001600160a01b03908116918215611a725716918215611a595760207f8c5be1e5ebec7d5bd14f71427d1e84f3dd0314c0f7b2291e5b200ac8c7c3b925918360005260018252604060002085600052825280604060002055604051908152a3565b604051634a1406b160e11b815260006004820152602490fd5b60405163e602df0560e01b815260006004820152602490fd5b60ff60085416611a9757565b60405163d93c066560e01b8152600490fd5b60ff8114611ae75760ff811690601f8211611ad55760405191611acb836114e7565b8252602082015290565b604051632cd44ac360e21b8152600490fd5b50604051600554816000611afa8361124f565b80835292602090600190818116908115611b895750600114611b28575b5050611b2592500382611519565b90565b91509260056000527f036b6384b5eca791c62761152d0c79bb0604c104a5fb6f4eb0703f3154bb3db0936000925b828410611b715750611b259450505081016020013880611b17565b85548785018301529485019486945092810192611b56565b91505060209250611b2594915060ff191682840152151560051b8201013880611b17565b60ff8114611bcf5760ff811690601f8211611ad55760405191611acb836114e7565b50604051600654816000611be28361124f565b80835292602090600190818116908115611b895750600114611c0c575050611b2592500382611519565b91509260066000527ff652222313e28459528d920b65115c16c04f3efc82aaedc97be59f3f377c0d3f936000925b828410611c555750611b259450505081016020013880611b17565b85548785018301529485019486945092810192611c3a565b91907f7fffffffffffffffffffffffffffffff5d576e7357a4501ddfe92f46681b20a08411611cf157926020929160ff608095604051948552168484015260408301526060820152600092839182805260015afa15611ce55780516001600160a01b03811615611cdc57918190565b50809160019190565b604051903d90823e3d90fd5b50505060009160039190565b6004811015611d6c5780611d0f575050565b60018103611d295760405163f645eedf60e01b8152600490fd5b60028103611d4a5760405163fce698f760e01b815260048101839052602490fd5b600314611d545750565b602490604051906335e2f38360e21b82526004820152fd5b634e487b7160e01b600052602160045260246000fd5b919060018060a01b0380931690600093828552600e60205260ff604086205416918215611e07575b505061182e57601254821161182e578252600f60205260408220548015611dfa57611def90915b6010602052604084206201518042048552602052604084205461153b565b11611b255750600190565b50611def60115491611dd1565b16845250604083205460ff163880611daa56fea2646970667358221220dd62b04633fc0e2fecea17ba4739174c807d96999d6b40e6e08af69d78e3029564736f6c634300081800332f8788117e7eff1d82e926ec794901d17c78024a50270940304540a733656f0da2646970667358221220344ac60c022f9683bb1dfdf600f710afeb52834f52bc9ce1990ab2e40323c61e64736f6c634300081800332f8788117e7eff1d82e926ec794901d17c78024a50270940304540a733656f0d",
  "linkReferences": {},
  "deployedLinkReferences": {}
}